{
  "_format": "hh-sol-artifact-1",
  "contractName": "BananaDapp",
  "sourceName": "contracts/BananaDapp.sol",
  "abi": [
    {
      "inputs": [
        {
          "internalType": "uint256",
          "name": "banana_stock",
          "type": "uint256"
        }
      ],
      "stateMutability": "nonpayable",
      "type": "constructor"
    },
    {
      "anonymous": false,
      "inputs": [
        {
          "indexed": true,
          "internalType": "address",
          "name": "_from",
          "type": "address"
        },
        {
          "indexed": false,
          "internalType": "uint256",
          "name": "_amount",
          "type": "uint256"
        }
      ],
      "name": "Buy",
      "type": "event"
    },
    {
      "inputs": [],
      "name": "bananaPrice",
      "outputs": [
        {
          "internalType": "uint256",
          "name": "",
          "type": "uint256"
        }
      ],
      "stateMutability": "view",
      "type": "function"
    },
    {
      "inputs": [],
      "name": "bananaStock",
      "outputs": [
        {
          "internalType": "uint256",
          "name": "",
          "type": "uint256"
        }
      ],
      "stateMutability": "view",
      "type": "function"
    },
    {
      "inputs": [
        {
          "internalType": "uint256",
          "name": "amount",
          "type": "uint256"
        }
      ],
      "name": "buy",
      "outputs": [],
      "stateMutability": "payable",
      "type": "function"
    },
    {
      "inputs": [
        {
          "internalType": "address",
          "name": "holder_address",
          "type": "address"
        }
      ],
      "name": "getBalance",
      "outputs": [
        {
          "internalType": "uint256",
          "name": "",
          "type": "uint256"
        }
      ],
      "stateMutability": "view",
      "type": "function"
    },
    {
      "inputs": [],
      "name": "owner",
      "outputs": [
        {
          "internalType": "address payable",
          "name": "",
          "type": "address"
        }
      ],
      "stateMutability": "view",
      "type": "function"
    },
    {
      "inputs": [
        {
          "internalType": "address payable",
          "name": "new_owner",
          "type": "address"
        }
      ],
      "name": "transferOwnership",
      "outputs": [],
      "stateMutability": "nonpayable",
      "type": "function"
    },
    {
      "inputs": [
        {
          "internalType": "uint256",
          "name": "new_stock",
          "type": "uint256"
        }
      ],
      "name": "updateStock",
      "outputs": [],
      "stateMutability": "nonpayable",
      "type": "function"
    }
  ],
  "bytecode": "0x60806040526702c68af0bb14000060025534801561001c57600080fd5b50604051610b14380380610b14833981810160405281019061003e91906100c6565b336000806101000a81548173ffffffffffffffffffffffffffffffffffffffff021916908373ffffffffffffffffffffffffffffffffffffffff16021790555080600181905550506100f3565b600080fd5b6000819050919050565b6100a381610090565b81146100ae57600080fd5b50565b6000815190506100c08161009a565b92915050565b6000602082840312156100dc576100db61008b565b5b60006100ea848285016100b1565b91505092915050565b610a12806101026000396000f3fe6080604052600436106100705760003560e01c8063d3d8f6991161004e578063d3d8f699146100f6578063d96a094a1461011f578063f2fde38b1461013b578063f8b2cb4f1461016457610070565b806338c0db24146100755780638da5cb5b146100a0578063acd2cda6146100cb575b600080fd5b34801561008157600080fd5b5061008a6101a1565b604051610097919061055d565b60405180910390f35b3480156100ac57600080fd5b506100b56101a7565b6040516100c291906105b9565b60405180910390f35b3480156100d757600080fd5b506100e06101cb565b6040516100ed919061055d565b60405180910390f35b34801561010257600080fd5b5061011d60048036038101906101189190610605565b6101d1565b005b61013960048036038101906101349190610605565b610269565b005b34801561014757600080fd5b50610162600480360381019061015d919061065e565b61042a565b005b34801561017057600080fd5b5061018b600480360381019061018691906106c9565b6104fb565b604051610198919061055d565b60405180910390f35b60015481565b60008054906101000a900473ffffffffffffffffffffffffffffffffffffffff1681565b60025481565b60008054906101000a900473ffffffffffffffffffffffffffffffffffffffff1673ffffffffffffffffffffffffffffffffffffffff163373ffffffffffffffffffffffffffffffffffffffff161461025f576040517f08c379a000000000000000000000000000000000000000000000000000000000815260040161025690610779565b60405180910390fd5b8060018190555050565b6702c68af0bb1400008161027d91906107c8565b34146102be576040517f08c379a00000000000000000000000000000000000000000000000000000000081526004016102b590610856565b60405180910390fd5b600154811115610303576040517f08c379a00000000000000000000000000000000000000000000000000000000081526004016102fa906108c2565b60405180910390fd5b80600360003373ffffffffffffffffffffffffffffffffffffffff1673ffffffffffffffffffffffffffffffffffffffff168152602001908152602001600020600082825461035291906108e2565b92505081905550806001600082825461036b9190610916565b9250508190555060008054906101000a900473ffffffffffffffffffffffffffffffffffffffff1673ffffffffffffffffffffffffffffffffffffffff166108fc349081150290604051600060405180830381858888f193505050501580156103d8573d6000803e3d6000fd5b503373ffffffffffffffffffffffffffffffffffffffff167fe3d4187f6ca4248660cc0ac8b8056515bac4a8132be2eca31d6d0cc170722a7e8260405161041f919061055d565b60405180910390a250565b60008054906101000a900473ffffffffffffffffffffffffffffffffffffffff1673ffffffffffffffffffffffffffffffffffffffff163373ffffffffffffffffffffffffffffffffffffffff16146104b8576040517f08c379a00000000000000000000000000000000000000000000000000000000081526004016104af906109bc565b60405180910390fd5b806000806101000a81548173ffffffffffffffffffffffffffffffffffffffff021916908373ffffffffffffffffffffffffffffffffffffffff16021790555050565b6000600360008373ffffffffffffffffffffffffffffffffffffffff1673ffffffffffffffffffffffffffffffffffffffff168152602001908152602001600020549050919050565b6000819050919050565b61055781610544565b82525050565b6000602082019050610572600083018461054e565b92915050565b600073ffffffffffffffffffffffffffffffffffffffff82169050919050565b60006105a382610578565b9050919050565b6105b381610598565b82525050565b60006020820190506105ce60008301846105aa565b92915050565b600080fd5b6105e281610544565b81146105ed57600080fd5b50565b6000813590506105ff816105d9565b92915050565b60006020828403121561061b5761061a6105d4565b5b6000610629848285016105f0565b91505092915050565b61063b81610598565b811461064657600080fd5b50565b60008135905061065881610632565b92915050565b600060208284031215610674576106736105d4565b5b600061068284828501610649565b91505092915050565b600061069682610578565b9050919050565b6106a68161068b565b81146106b157600080fd5b50565b6000813590506106c38161069d565b92915050565b6000602082840312156106df576106de6105d4565b5b60006106ed848285016106b4565b91505092915050565b600082825260208201905092915050565b7f4f6e6c7920746865206f776e65722063616e207570646174652074686520737460008201527f6f636b0000000000000000000000000000000000000000000000000000000000602082015250565b60006107636023836106f6565b915061076e82610707565b604082019050919050565b6000602082019050818103600083015261079281610756565b9050919050565b7f4e487b7100000000000000000000000000000000000000000000000000000000600052601160045260246000fd5b60006107d382610544565b91506107de83610544565b92508282026107ec81610544565b9150828204841483151761080357610802610799565b5b5092915050565b7f57726f6e6720616d6f756e742073656e74000000000000000000000000000000600082015250565b60006108406011836106f6565b915061084b8261080a565b602082019050919050565b6000602082019050818103600083015261086f81610833565b9050919050565b7f4e6f7420656e6f7567682062616e616e617320696e2073746f636b0000000000600082015250565b60006108ac601b836106f6565b91506108b782610876565b602082019050919050565b600060208201905081810360008301526108db8161089f565b9050919050565b60006108ed82610544565b91506108f883610544565b92508282019050808211156109105761090f610799565b5b92915050565b600061092182610544565b915061092c83610544565b925082820390508181111561094457610943610799565b5b92915050565b7f4f6e6c7920746865206f776e65722063616e207472616e73666572206f776e6560008201527f7273686970000000000000000000000000000000000000000000000000000000602082015250565b60006109a66025836106f6565b91506109b18261094a565b604082019050919050565b600060208201905081810360008301526109d581610999565b905091905056fea2646970667358221220acbadc9939b6bff3c1679801d1371b44e6621b1685b35266682b49763a14205b64736f6c63430008130033",
  "linkReferences": {},
  "deployedLinkReferences": {}
}